:02000000452891
:10000A00443445344D344F34383434342034523443
:10001A0065347634203431342E3431342034433448
:10002A006F347034793472346934673468347434B0
:10003A00203428344334293431343934393435348A
:10004A0020344A346534663466347234653479341B
:10005A0020344D342E3420345334633468346D34B0
:10006A006F3479346534723404308F008E018D0117
:10007A0000008D0B3D288E0B3D288F0B3D28080074
:10008A001F306500FF30860000306600FE308C00AD
:0A009A000C08860039208C034D2865
:084000007F007F007F007F00BC
:04400E00FB3F010073
:00000001FF
