:020000000528D1
:100008001F288312051485148C1387010230A2005F
:100018000A30A300831605108510091489140915E0
:1000280001178C1709160B178B100B160B108B1555
:100038008B1783121E28A000030E8312A1008C1FA9
:100048002D288316891F29284D2883120514851405
:100058004D288B1C4528A30B3E28A20B3B282408BF
:10006800880005100230A2000A30A3004228A3012C
:10007800A30A42280314861C0310A40C83128B10B5
:100088004F28861F4A2807088800851083120B10FE
:100098004F2883128C13210E8300A00E200E090016
:084000007F007F007F007F00BC
:04400E00F13F02007C
:00000001FF
