:020000000528D1
:100008001D28831205148C1387010230A2000A30C0
:10001800A30083160510091489140915870101170F
:100028008C1709160B178B100B168B1783120714D6
:100038001C28A000030E8312A100871087148C1FB0
:100048002F2807158316891F2C28871187154D28F7
:10005800831205144D2887128716A30B4428A20B78
:100068003F28871387172408880005100230A2004C
:100078000A30A3004A2807130717A301A30A4A282E
:10008800071207160314861C0310A40C83128B1086
:1000980051288312071207168C13210E8300A00E15
:0400A800200E09001D
:084000007F007F007F007F00BC
:04400E00F13F02007C
:00000001FF
