:020000000528D1
:10000800372883128C13071387138C120230A2002F
:100018000A30A300831605108510091489140915E0
:100028000717871701178C1709160F309900181230
:1000380098168312981783168C16831218160514AF
:100048004030A600A500A70190161016DC308E00DF
:100058000B308F00101483160B170C148B100B1613
:100068008B1783123628A000030E8312A1000C18E8
:1000780046288C1F53288316891F50288312080886
:1000880099006C281010DC308E000B308F00101493
:1000980003307B200C10762883128D206C288B1C53
:1000A8006F28A30B6528A20B622802307B20240846
:1000B8007B200230A2000A30A3006928A301A30A0A
:1000C80069280314861C0310A40C83128B1076284D
:1000D80083128C137628831201307B201A087B2028
:1000E80083128C12210E8300A00E200E09008312A9
:1000F800A9004030270203180800260884002908B0
:100108008000A60A26083F39403EA600A70A8D208F
:1001180008008316091F9228831208008312051409
:10012800A70803190800250884000008A800A50AE4
:1001380025083F39403EA500A703280888008C13EE
:040148000510080096
:084000007F007F007F007F00BC
:04400E00F13F02007C
:00000001FF
