:020000000528D1
:100008004028831205148C138510051107138713D4
:100018008C120230A2000A30A30083160510851046
:100028000511851509148914091507138717011770
:100038008C170916831681309900181298168312A6
:10004800981783168C168312181683160B178B10A5
:100058000B168B178312181D332885143428851026
:10006800981C3828051539280511851D2F28413079
:100078009900181218162F28A000030E8312A10049
:100088008C1F4D288316891F4A286528831205145A
:1000980065288B1C6828A30B5E28A20B5B28240804
:1000A800880005100230A2000A30A3006228A301CC
:1000B800A30A62280314861C0310A40C83128B1055
:1000C8006D2883128C136D2883121A088800051076
:0C00D8008C12210E8300A00E200E0900E7
:084000007F007F007F007F00BC
:04400E00F13F02007C
:00000001FF
