:020000000528D1
:1000080030288312051485148C13051107138713E0
:100018008C120230A2000A30A30083160510851046
:100028000511851509148914091507138717011770
:100038008C170916831681309900181298168312A6
:10004800981783168C168312181683160B178B10A5
:100058000B168B1783122F28A000030E8312A10002
:100068008C1F40288316891F3C28831208085828AB
:1000780083120514851458288B1C5B28A30B512860
:10008800A20B4E282408880005100230A2000A306E
:10009800A3005528A301A30A55280314861C03109E
:1000A800A40C83128B10602883128C13602883128F
:1000B8001A08880085108C12210E8300A00E200ECD
:0200C80009002D
:084000007F007F007F007F00BC
:04400E00F13F02007C
:00000001FF
